:100000000C9458000C9480000C9480000C94800098
:100010000C9480000C9480000C9480000C94800060
:100020000C9480000C9480000C9480000C94800050
:100030000C9480000C9480000C9480000C94800040
:100040000C941C030C9480000C948C030C94660399
:100050000C9480000C9480000C9480000C94800020
:100060000C94BE030C9480000000000025002800C2
:100070002B00040404040404040402020202020229
:10008000030303030303010204081020408001025C
:1000900004081020010204081020000000080002DB
:1000A0000100000304070000000000000000EC0451
:1000B00011241FBECFEFD8E0DEBFCDBF11E0A0E01E
:1000C000B1E0E8E5FDE002C005900D92A237B1076E
:1000D000D9F722E0A2E7B1E001C01D92A83DB20726
:1000E000E1F710E0C8E5D0E004C02197FE010E94CE
:1000F0009F06C735D107C9F70E9425050C94AA06AB
:100100000C94000090E0FC01E656FF4F2491FC01A6
:10011000EA57FF4F3491FC01EE58FF4FE491EE2374
:10012000B1F1222339F1233091F038F42130A9F0D4
:10013000223001F584B58F7D12C0273091F0283030
:10014000A1F02430B9F4809180008F7D03C08091AC
:1001500080008F77809380000DC084B58F7784BD39
:1001600009C08091B0008F7703C08091B0008F7D6F
:100170008093B000F0E0EE0FFF1FE859FF4FA5910C
:10018000B4918FB7F894EC91E32BEC938FBF089563
:100190003FB7F89480912B0290912C02A0912D02F0
:1001A000B0912E0226B5A89B05C02F3F19F00196ED
:1001B000A11DB11D3FBFBA2FA92F982F8827820FED
:1001C000911DA11DB11DBC01CD0142E0660F771F3D
:1001D000881F991F4A95D1F7089508950895CF92E1
:1001E000DF92EF92FF920F931F93CF93DF936C01F7
:1001F0007A018B01C0E0D0E0CE15DF0581F0D80197
:100200006D918D01D601ED91FC910190F081E02D71
:10021000C6010995892B11F02196EECF7E01C70109
:10022000DF91CF911F910F91FF90EF90DF90CF90D2
:100230000895FC01538D448D252F30E0842F90E0EC
:10024000821B930B541710F0CF96089501970895D1
:10025000FC01918D828D981761F0828DDF01A80FCE
:10026000B11D5D968C91928D9F5F9F73928F90E0F0
:1002700008958FEF9FEF0895FC01918D828D98175F
:1002800031F0828DE80FF11D858D90E008958FEF9C
:100290009FEF0895FC01918D228D892F90E0805C65
:1002A0009F4F821B91098F73992708958FE292E0E7
:1002B0000E944A0121E0892B09F420E0822F089551
:1002C000FC01848DDF01A80FB11DA35ABF4F2C91F3
:1002D000848D90E001968F739927848FA689B789C2
:1002E0002C93A089B1898C91837080648C93938DB9
:1002F000848D981306C00288F389E02D80818F7D5C
:1003000080830895EF92FF920F931F93CF93DF9313
:10031000EC0181E0888F9B8D8C8D981305C0E88956
:10032000F989808185FD26C0F62E0B8D10E00F5FC8
:100330001F4F0F731127E02E8C8DE8120CC00FB6E3
:1003400007FCFACFE889F989808185FFF5CFCE01D6
:100350000E946001F1CF8B8DFE01E80FF11DE35A81
:10036000FF4FF0829FB7F8940B8FEA89FB89808159
:1003700080620AC09FB7F894EE89FF896083E8899C
:10038000F98980818370806480839FBF81E090E0E1
:10039000DF91CF911F910F91FF90EF900895CF9330
:1003A000DF93EC01888D8823C9F0EA89FB8980817D
:1003B00085FD05C0A889B9898C9186FD0FC00FB64F
:1003C00007FCF5CF808185FFF2CFA889B9898C9190
:1003D00085FFEDCFCE010E946001E7CFDF91CF9185
:1003E000089580E090E0892B29F00E945601811148
:1003F0000C940000089585ED8093BC008091BC00B2
:1004000084FDFCCF1092010208954091B201262F85
:1004100030E0240F311D21323105DCF4209101023E
:100420002430C9F4FC0180E090E0861758F4309144
:10043000B2012191DC01AE56BE4FA30FB11D2C932A
:100440000196F3CF8091B201680F6093B20180E012
:10045000089581E0089582E008950895E091DA0119
:100460008091D901E81730F4F0E0EE58FE4F80811A
:1004700090E008958FEF9FEF08959091DA018091B9
:10048000D901981750F4E92FF0E0EE58FE4F208183
:1004900030E09F5F9093DA0102C02FEF3FEFC90178
:1004A00008958091D90190E02091DA01821B910991
:1004B0000895CF92DF92EF92FF920F931F93CF9305
:1004C000DF937C01CB018A0120910202222389F073
:1004D000EB016B01C40ED51ECC15DD0569F06991E9
:1004E000D701ED91FC910190F081E02DC7010995B4
:1004F000F3CF642F0E940502C801DF91CF911F91B5
:100500000F91FF90EF90DF90CF900895CF93DF93FE
:100510001F92CDB7DEB76983209102022223D1F06A
:1005200020912502203240F021E030E0FC013383AD
:10053000228380E090E015C080910302E82FF0E074
:10054000EC5FFD4F998190838F5F809303028093CE
:10055000250205C061E0CE0101960E94050281E0FE
:1005600090E00F90DF91CF910895089580E090E0A2
:100570000895009769F0FC0101900020E9F7319798
:10058000AF01481B590BBC018FE292E00C94EF00C5
:1005900080E090E00895CF93DF930E94B902EC01D0
:1005A00084E291E00E94B9028C0F9D1FDF91CF91F0
:1005B00008958F929F92AF92BF920F931F93CF9304
:1005C000DF93CDB7DEB7A1970FB6F894DEBF0FBEAD
:1005D000CDBF19A2423008F44AE08E010F5D1F4FD3
:1005E000842E912CA12CB12CA50194010E947D0692
:1005F000E62FB901CA0101501109EA3014F4E05D97
:1006000001C0E95CD801EC93232B242B252B61F747
:10061000C8010E94B902A1960FB6F894DEBF0FBEC2
:10062000CDBFDF91CF911F910F91BF90AF909F9061
:100630008F9008950E94A5061F920F920FB60F92F9
:1006400011242F933F938F939F93AF93BF938091E8
:10065000270290912802A0912902B0912A0230919C
:10066000260223E0230F2D3720F40196A11DB11D92
:1006700005C026E8230F0296A11DB11D2093260276
:100680008093270290932802A0932902B0932A0214
:1006900080912B0290912C02A0912D02B0912E02FC
:1006A0000196A11DB11D80932B0290932C02A09363
:1006B0002D02B0932E02BF91AF919F918F913F91E8
:1006C0002F910F900FBE0F901F9018951F920F92B1
:1006D0000FB60F9211242F933F934F935F936F9315
:1006E0007F938F939F93AF93BF93EF93FF938FE28B
:1006F00092E00E946001FF91EF91BF91AF919F91B5
:100700008F917F916F915F914F913F912F910F90BA
:100710000FBE0F901F9018951F920F920FB60F9259
:1007200011242F938F939F93EF93FF93E0913F02B8
:10073000F09140028081E0914502F091460282FDF5
:1007400012C09081809148028F5F8F73209149027F
:10075000821751F0E0914802F0E0E15DFD4F958F86
:100760008093480201C08081FF91EF919F918F910A
:100770002F910F900FBE0F901F9018951F920F9200
:100780000FB60F9211242F933F934F935F936F9364
:100790007F938F939F93AF93BF93EF93FF9380913A
:1007A000B900887F803609F49CC068F5883209F466
:1007B0005BC090F4803109F454C038F4882309F404
:1007C000F6C0883009F44DC0F6C0883109F44CC039
:1007D000803209F45DC0EFC0803409F468C048F489
:1007E000803309F455C0883309F0E5C08093FF01D8
:1007F000D8C0803509F44FC0883509F45DC088340D
:1008000009F0D9C0D6C0883909F4C7C0A8F4883720
:1008100009F467C038F4883609F463C0803709F4F6
:1008200060C0C9C0883809F4B8C0803909F45FC015
:10083000803809F0C0C05BC0803B09F486C038F442
:10084000803A09F466C0883A09F47FC0B4C0803C9D
:1008500009F4A7C0883C09F4A4C0883B09F48AC005
:10086000AAC08091DC0110C09091FE018091FD0131
:10087000981770F5E091FE0181E08E0F8093FE01E4
:10088000F0E0E352FE4F80818093BB0085EC86C090
:100890008093FF018EC0E091FE0181E08E0F809376
:1008A000FE018091BB00F0E0E352FE4F8083909107
:1008B000FE018091FD016EC0E091FE0181E08E0F8E
:1008C0008093FE018091BB00F0E0E352FE4F8083F5
:1008D0008091000281116DC081E08093DB0184EA88
:1008E00061C083E0809301021092D401CFCF809148
:1008F000D401803208F051C0E091D40181E08E0F24
:100900008093D4018091BB00F0E0EC54FE4F8083D3
:10091000BDCF85EC8093BC00109201028091D40180
:10092000803230F4E091D401F0E0EC54FE4F1082BC
:100930006091D40170E0E091D501F091D60184EB93
:1009400091E009951092D40136C084E080930102B1
:100950001092B3011092B201E091D701F091D80149
:1009600009958091B201811105C081E08093B201A7
:1009700010929201E091B30181E08E0F8093B30158
:10098000F0E0EE56FE4F80818093BB009091B30162
:100990008091B201981708F479CF85E88093BC0064
:1009A0000AC085EC8093BC001092010204C0109232
:1009B000FF010E94FB01FF91EF91BF91AF919F91C9
:1009C0008F917F916F915F914F913F912F910F90F8
:1009D0000FBE0F901F901895EFE2F2E01382128283
:1009E00088EE93E0A0E0B0E084839583A683B7838C
:1009F00024E031E03183208325EC30E03587248703
:100A000024EC30E03787268720EC30E0318B208BD8
:100A100021EC30E0338B228B22EC30E0358B248BC1
:100A200026EC30E0378B268B118E128E138E148EAF
:100A3000ECECF2E01382128284839583A683B78361
:100A400086E191E0918380830895789484B58260F3
:100A500084BD84B5816084BD85B5826085BD85B562
:100A6000816085BD80916E00816080936E001092E0
:100A7000810080918100826080938100809181005B
:100A800081608093810080918000816080938000EC
:100A90008091B10084608093B1008091B00081604A
:100AA0008093B00080917A00846080937A00809176
:100AB0007A00826080937A0080917A0081608093CE
:100AC0007A0080917A00806880937A001092C10049
:100AD000E0913F02F091400282E08083E0913B028E
:100AE000F0913C021082E0913D02F0913E028FECC9
:100AF000808310924702E0914302F091440286E025
:100B00008083E0914102F091420280818061808384
:100B1000E0914102F0914202808188608083E091FF
:100B20004102F0914202808180688083E09141021D
:100B3000F091420280818F7D808384E291E00E9467
:100B4000B90287E291E00E94CB021092DA01109282
:100B5000D90110920302109225021092010281E045
:100B6000809300021092DB0182E10E94820083E107
:100B70000E9482008091B9008E7F8093B90080919D
:100B8000B9008D7F8093B90088E48093B80085E434
:100B90008093BC008DEE90E09093D8018093D701B4
:100BA0008EEE90E09093D6018093D50158E0C52E4B
:100BB000D12CE12CF12CC0E0D1E012E00FEF65EE7A
:100BC000B62E75ECA72ED0930202C092240210928A
:100BD000030210922502809101028111FCCF109333
:100BE0000102D09300020093FF011092FE011092C7
:100BF000FD011092DC019091DC019601220F331F60
:100C0000292B2093DC019091DB01913069F4109243
:100C1000DB019091DC019093BB009091BC0093FDAF
:100C2000F8CFA092BC0002C0B092BC00909101022B
:100C30009230E1F39091FF019F3F69F08091FF01B5
:100C4000803231F08091FF01803321F084E003C0D5
:100C500082E001C083E010920302109225021092FC
:100C60000202811128C081E491E00E94B9024AE0A9
:100C7000C701B6010E94D90281E591E00E94B90244
:100C800040E1C701B6010E94D90286E591E00E94C9
:100C9000CB02CF5F0E94C8002B013C010E94C8001C
:100CA000DC01CB0184199509A609B709883E934058
:100CB000A105B10598F38FEFC81AD80AE80AF80A17
:100CC00028E7C216D104E104F10409F07CCF88E5DD
:100CD00091E00E94CB028EE591E00E94B9026C2F58
:100CE00070E080E090E04AE00E94D90285E691E061
:100CF0000E94CB020E94F101FDCFA1E21A2EAA1B95
:100D0000BB1BFD010DC0AA1FBB1FEE1FFF1FA217BB
:100D1000B307E407F50720F0A21BB30BE40BF50BB8
:100D2000661F771F881F991F1A9469F76095709541
:100D3000809590959B01AC01BD01CF010895EE0F08
:100D4000FF1F0590F491E02D099481E090E0F89464
:080D50000C94AA06F894FFCFF1
:100D5800000000008201EF001901CF014A012801BB
:100D68003C010000000086025902B6022D02510221
:100D78003D022E020D0A00493243207363616E6EF4
:100D880065722E205363616E6E696E67202E2E2E5B
:100D980000466F756E6420616464726573733A20EF
:100DA8000020283078002900446F6E652E00466FB9
:100DB800756E642000206465766963652873292E42
:020DC800000029
:00000001FF
