:100000000C9462000C948A000C948A000C948A0070
:100010000C948A000C948A000C948A000C948A0038
:100020000C948A000C948A000C948A000C948A0028
:100030000C948A000C943D040C948A000C948A0061
:100040000C943B070C948A000C948A000C948A0050
:100050000C948A000C948A000C948A000C948A00F8
:100060000C940F030C948A00000000002400270069
:100070002A0000000000250028002B0000000000DE
:1000800023002600290004040404040404040202DA
:100090000202020203030303030301020408102007
:1000A0004080010204081020010204081020000012
:1000B0000008000201000003040700000000000027
:1000C0000000E50B11241FBECFEFD8E0DEBFCDBF8F
:1000D00012E0A0E0B1E0EEEEFCE102C005900D926E
:1000E000AC37B107D9F723E0ACE7B2E001C01D920D
:1000F000AA37B207E1F710E0C2E6D0E004C02197CA
:10010000FE010E946A0EC136D107C9F70E94850719
:100110000C94750E0C94000008950895CF92DF9210
:10012000EF92FF920F931F93CF93DF936C017A01AD
:100130008B01C0E0D0E0CE15DF0581F0D8016D91D4
:100140008D01D601ED91FC910190F081E02DC60169
:100150000995892B11F02196EECF7E01C701DF9121
:10016000CF911F910F91FF90EF90DF90CF90089566
:1001700085ED8093BC008091BC0084FDFCCF109283
:100180002D0308954091E002262F30E0240F311D09
:1001900021323105DCF420912D032430C9F4FC0117
:1001A00080E090E0861758F43091E0022191DC0164
:1001B000A054BD4FA30FB11D2C930196F3CF809196
:1001C000E002680F6093E00280E0089581E0089506
:1001D00082E008950895E091310380913003E8179B
:1001E00030F4F0E0E056FD4F808190E008958FEF0D
:1001F0009FEF08959091310380913003981750F448
:10020000E92FF0E0E056FD4F208130E09F5F9093B2
:10021000310302C02FEF3FEFC901089580913003F1
:1002200090E020913103821B91090895CF92DF92D3
:10023000EF92FF920F931F93CF93DF937C01CB013B
:100240008A0120919F02222389F0EB016B01C40EE9
:10025000D51ECC15DD0569F06991D701ED91FC91B2
:100260000190F081E02DC7010995F3CF642F0E9422
:10027000C200C801DF91CF911F910F91FF90EF90C5
:10028000DF90CF900895CF93DF931F92CDB7DEB765
:10029000698320919F022223D1F020912E032032E6
:1002A00040F021E030E0FC013383228380E090E0E5
:1002B00015C080912F03E82FF0E0E158FD4F9981A0
:1002C00090838F5F80932F0380932E0305C061E09E
:1002D000CE0101960E94C20081E090E00F90DF9174
:1002E000CF910895CF93FC01C48121E020939F0218
:1002F000C0937C0210922F0310922E038385682BEB
:1003000089E593E00E94430190912E03913208F019
:1003100045C080912D038111FCCF82E080932D0395
:1003200081E080932C038FEF8093030310922503C9
:1003300090932403AFE7B2E0E4E0F3E080E09817A5
:1003400021F02D9121938F5FFACF10922603809197
:100350002603CC0FC82BC093260380912B0381303A
:1003600061F410922B03809126038093BB0080914F
:10037000BC0083FDF8CF85EC01C085EE8093BC0006
:1003800080912D038230E1F3809103038F3F31F0A0
:1003900080910303803211F08091030310922F03A8
:1003A00010922E0310929F02CF9108950F931F93E6
:1003B000CF938C01C62F0E9472016C2F6460C8011C
:1003C0000E9472016C2F6B7FC8010E94720183EC46
:1003D00090E00197F1F7CF911F910F910895089543
:1003E00080E090E008950E94700ECF93DF93C0915B
:1003F0005703D091580380917D0290917E028C1713
:100400009D0761F00E94D204D0937E02C0937D02CA
:100410001092560360E08AE00E947F06C330D10547
:1004200009F4CCC008F064C0229709F0F5C060E080
:1004300080E00E94DD048EEB91E00E94110560E0F7
:1004400084E00E94DD046091440370914503809133
:100450004603909147030E94E90CCB010E9454058A
:1004600060E088E00E94DD0487EC91E00E941105C5
:1004700060E08DE00E94DD0460914E0370914F03B7
:1004800080915003909151030E94E90CCB010E948E
:10049000540561E080E00E94DD0480ED91E00E945F
:1004A000110561E084E00E94DD0460913A037091DF
:1004B0003B0380913C0390913D030E947D0561E0E8
:1004C00088E00E94DD0488ED91E00E94110561E062
:1004D0008DE00E94DD0480915403909155030E94A9
:1004E000540561E08FE00E94DD0481EE91E090C050
:1004F000C430D105C1F1259709F08EC00E94D20405
:1005000080ED91E00E94110560E084E00E94DD042E
:1005100060913A0370913B0380913C0390913D03BD
:100520000E947D0560E088E00E94DD0488ED91E096
:100530000E94110560E08DE00E94DD04809154036B
:10054000909155030E94540560E08FE00E94DD0405
:1005500081EE91E00E94110561E080E00E94DD04DF
:100560008EE092E055C00E94D20483EE91E00E949A
:100570001105609144037091450380914603909169
:1005800047030E94E90CCB010E94540588EE91E0DC
:100590000E94110560914E0370914F0380915003AA
:1005A000909151030E94E90CCB010E94540561E037
:1005B00080E00E94DD048EEE91E02AC00E94D20409
:1005C00083EE91E00E941105609144037091450310
:1005D00080914603909147030E94E90CCB010E9451
:1005E000540588EE91E00E94110560914E037091D0
:1005F0004F0380915003909151030E94E90CCB016D
:100600000E94540561E080E00E94DD048EEF91E0DD
:10061000DF91CF910C941105DF91CF9108951F9236
:100620000F920FB60F9211242F933F934F935F9326
:100630006F937F938F939F93AF93BF93EF93FF93AA
:100640008091B900887F803609F49CC068F58832B3
:1006500009F45BC090F4803109F454C038F4882365
:1006600009F4F6C0883009F44DC0F6C0883109F4A9
:100670004CC0803209F45DC0EFC0803409F468C01A
:1006800048F4803309F455C0883309F0E5C08093FD
:100690000303D8C0803509F44FC0883509F45DC024
:1006A000883409F0D9C0D6C0883909F4C7C0A8F485
:1006B000883709F467C038F4883609F463C0803796
:1006C00009F460C0C9C0883809F4B8C0803909F499
:1006D0005FC0803809F0C0C05BC0803B09F486C0B1
:1006E00038F4803A09F466C0883A09F47FC0B4C08F
:1006F000803C09F4A7C0883C09F4A4C0883B09F4F5
:100700008AC0AAC08091260310C0909125038091D1
:100710002403981770F5E091250381E08E0F8093F4
:100720002503F0E0EC5FFC4F80818093BB0085ECFB
:1007300086C0809303038EC0E091250381E08E0F75
:10074000809325038091BB00F0E0EC5FFC4F808339
:1007500090912503809124036EC0E091250381E0F0
:100760008E0F809325038091BB00F0E0EC5FFC4F7F
:10077000808380912C0381116DC081E080932B03D5
:1007800084EA61C083E080932D0310920203CFCFEF
:1007900080910203803208F051C0E091020381E0B1
:1007A0008E0F809302038091BB00F0E0EE51FD4F6D
:1007B0008083BDCF85EC8093BC0010922D03809187
:1007C0000203803230F4E0910203F0E0EE51FD4F7D
:1007D00010826091020370E0E0912703F0912803FA
:1007E00082EE92E009951092020336C084E0809375
:1007F0002D031092E1021092E002E0912903F091A2
:100800002A0309958091E002811105C081E080935F
:10081000E0021092C002E091E10281E08E0F80932D
:10082000E102F0E0E054FD4F80818093BB009091A5
:10083000E1028091E002981708F479CF85E880936F
:10084000BC000AC085EC8093BC0010922D0304C04C
:10085000109203030E94B800FF91EF91BF91AF91F6
:100860009F918F917F916F915F914F913F912F91C8
:100870000F900FBE0F901F9018951F920F920FB6FA
:100880000F9211248F939F9395B180E2892785B9A8
:100890008CED809384008BE0809385009F918F91F5
:1008A0000F900FBE0F901F9018950F931F93CF932B
:1008B000DF938C01C62FD42F607F642B0E94D6015A
:1008C00080E1C89FB00111246D2BC801DF91CF9149
:1008D0001F910F910C94D60141E00E94550481E0D4
:1008E00090E00895833081F028F4813099F08230CF
:1008F000A1F008958730A9F08830B9F08430D1F4A0
:10090000809180008F7D03C0809180008F778093DD
:100910008000089584B58F7702C084B58F7D84BD33
:1009200008958091B0008F7703C08091B0008F7DD3
:100930008093B00008953FB7F8948091760390912A
:100940007703A0917803B091790326B5A89B05C0E1
:100950002F3F19F00196A11DB11D3FBFBA2FA92F3E
:10096000982F8827820F911DA11DB11DBC01CD01BB
:1009700042E0660F771F881F991F4A95D1F70895A7
:10098000009769F0FC0101900020E9F73197AF0171
:10099000481B590BBC0185E693E00C948E0080E067
:1009A00090E0089540E061E085E693E00E94550400
:1009B0008BE39FE10197F1F70895CF93DF93CDB7D4
:1009C000DEB728970FB6F894DEBF0FBECDBF98E014
:1009D000E8E9F1E0DE01119601900D929A95E1F7B8
:1009E00090916D03492F50E0262F30E024173507F2
:1009F00014F06FEF690FFE013196E60FF11DE60F5F
:100A0000F11D6081680F606840E085E693E02896FC
:100A10000FB6F894DEBF0FBECDBFDF91CF910C941F
:100A200055040C94C0048F929F92AF92BF920F9383
:100A30001F93CF93DF93CDB7DEB7A1970FB6F8948E
:100A4000DEBF0FBECDBF19A2423008F44AE08E01CE
:100A50000F5D1F4F842E912CA12CB12CA501940168
:100A60000E94480EE62FB901CA0101501109EA306F
:100A700014F4E05D01C0E95CD801EC93232B242B36
:100A8000252B61F7C8010E94C004A1960FB6F89407
:100A9000DEBF0FBECDBFDF91CF911F910F91BF90F1
:100AA000AF909F908F900895CF92DF92EF92FF9238
:100AB0006C01990FEE08FF08F7FE16C041E06DE2E9
:100AC00085E693E00E94550466277727CB016C19D1
:100AD0007D098E099F094AE00E9413050196FF9047
:100AE000EF90DF90CF9008954AE0C701B601FF90E4
:100AF000EF90DF90CF900C9413054F925F926F921E
:100B00007F928F929F92AF92BF92CF92DF92EF929D
:100B1000FF92CF93DF936B017C019B01AC010E949C
:100B2000430E882319F08FE692E027C04601570153
:100B3000E894B7F82FEF3FEF4FE75FE7C501B40147
:100B40000E94430E81110DC02FEF3FEF4FE75FE78B
:100B5000C501B4010E94720C18161CF483E792E0E0
:100B60000CC02FEF3FEF4FE75FE4C701B6010E94D3
:100B7000D10D181694F487E792E0DF91CF91FF90A2
:100B8000EF90DF90CF90BF90AF909F908F907F902D
:100B90006F905F904F900C94C0042FEF3FEF4FE7A2
:100BA0005FECC701B6010E94720C87FDE4CF20E024
:100BB00030E0A901C701B6010E94720C87FF0DC089
:100BC00041E06DE285E693E00E945504F7FAF09467
:100BD000F7F8F094C1E0D0E002C0C0E0D0E02AE035
:100BE00037ED43EA5BE3C701B6010E94060C4B01F7
:100BF0005C010E94F00C6B017C010E941F0D9B01A7
:100C0000AC01C501B4010E94050C4B015C014AE036
:100C1000C701B6010E9413057C01EC0EFD1E41E0E8
:100C20006EE285E693E00E9455048FEFE81AF80A19
:100C300020E030E040E251E4C501B4010E94D60D4D
:100C40002B013C010E94F00C4B01A12CB12C4AE07D
:100C5000C501B4010E941305E80EF91EC501B401D7
:100C60000E941F0D9B01AC01C301B2010E94050C43
:100C700020E030E040E251E40E94D60D0E94F00CEA
:100C800080E090E04AE00E9413058E0D9F1DDF91E9
:100C9000CF91FF90EF90DF90CF90BF90AF909F905B
:100CA0008F907F906F905F904F900895CF93DF93D8
:100CB000282F30E0F901E255FF4F8491F901E65603
:100CC000FF4FD491F901EA57FF4FC491CC2391F023
:100CD00081110E947204EC2FF0E0EE0FFF1FE45828
:100CE000FF4FA591B491EC91ED2381E090E021F4C8
:100CF00080E002C080E090E0DF91CF9108951F93E3
:100D0000CF93DF93282F30E0F901E255FF4F849114
:100D1000F901E656FF4FD491F901EA57FF4FC4910C
:100D2000CC23C1F0162F81110E947204EC2FF0E049
:100D3000EE0FFF1FEE58FF4FA591B4919FB7F894A7
:100D4000111104C08C91D095D82302C0EC91DE2BF8
:100D5000DC939FBFDF91CF911F910895CF93DF93D5
:100D600090E0FC01E656FF4F2491FC01EA57FF4F4B
:100D70008491882361F190E0880F991FFC01E85964
:100D8000FF4FC591D491FC01EE58FF4FA591B4914E
:100D9000611109C09FB7F8948881209582238883C8
:100DA000EC912E230BC0623061F49FB7F8948881D8
:100DB000322F309583238883EC912E2B2C939FBF69
:100DC00006C08FB7F894E8812E2B28838FBFDF9160
:100DD000CF9108958E3008F08E5087708064809394
:100DE0007C0080917A00806480937A0080917A0000
:100DF00086FDFCCF809178002091790090E0922BC5
:100E000008958F929F92AF92BF92CF92DF92EF920E
:100E1000FF926B017C010E949B044B015C01C11499
:100E2000D104E104F104F1F00E949B04DC01CB0148
:100E300088199909AA09BB09883E9340A105B10503
:100E400070F321E0C21AD108E108F10888EE880E9B
:100E500083E0981EA11CB11CC114D104E104F1046B
:100E600019F7DDCFFF90EF90DF90CF90BF90AF905C
:100E70009F908F9008951F920F920FB60F9211249A
:100E80002F933F938F939F93AF93BF938091720360
:100E900090917303A0917403B09175033091710325
:100EA00023E0230F2D3720F40196A11DB11D05C0AD
:100EB00026E8230F0296A11DB11D20937103809394
:100EC000720390937303A0937403B093750380919E
:100ED000760390917703A0917803B09179030196FE
:100EE000A11DB11D8093760390937703A09378039F
:100EF000B0937903BF91AF919F918F913F912F91C3
:100F00000F900FBE0F901F901895CF93DF9300D0D6
:100F100000D0CDB7DEB7789484B5826084BD84B547
:100F2000816084BD85B5826085BD85B5816085BDE4
:100F300080916E00816080936E001092810080919C
:100F40008100826080938100809181008160809324
:100F50008100809180008160809380008091B10049
:100F600084608093B1008091B00081608093B00074
:100F700080917A00846080937A0080917A00826008
:100F800080937A0080917A00816080937A008091CA
:100F90007A00806880937A001092C10060E085E05A
:100FA0000E94AE0660E086E00E94AE0660E087E048
:100FB0000E94AE0660E088E00E94AE0661E089E033
:100FC0000E94AE0660E089E00E947F0661E08AE050
:100FD0000E94AE06109231031092300310922F033C
:100FE00010922E0310922D0381E080932C03109217
:100FF0002B0361E082E10E947F0661E083E10E94B1
:101000007F068091B9008E7F8093B9008091B900EE
:101010008D7F8093B90088E48093B80085E4809345
:10102000BC008CE890E090932A03809329038DE81C
:1010300090E0909328038093270310926A03809195
:101040006F03823018F098E090936A0380936D03E9
:1010500062E370E080E090E00E940107609170031D
:1010600085E693E00E94720168EE73E080E090E014
:101070000E94010760E385E693E00E94D6018BE4BD
:1010800096E40197F1F760E385E693E00E94D601CC
:101090004BE456E4CA010197F1F760E385E693E07B
:1010A0000E94D60183E592E00197F1F760E285E6C0
:1010B00093E00E94D60160916A03606240E085E699
:1010C00093E00E94550484E080936B0340E06CE061
:1010D00085E693E00E9455040E94D20482E080934A
:1010E0006C0340E066E085E693E00E94550440E032
:1010F00062E085E693E00E9455048BE39FE101974F
:10110000F1F788E08093700360E085E693E00E9449
:1011100072010E94D2048FE192E00E94110561E009
:1011200080E00E94DD048FE292E00E94110561E000
:101130008AE00E947F0664EF71E080E090E00E9408
:10114000010760E08AE00E947F0668EE73E080E0BD
:1011500090E00E9401070E94D20480E492E00E9485
:10116000110561E080E00E94DD0468EE73E080E03C
:1011700090E00E94010785E00E94560621E0298345
:10118000892B09F0198286E00E945606892B19F4F2
:1011900049814260498387E00E945606892B19F4F1
:1011A00059815460598388E00E945606892B19F4AE
:1011B0006981686069837981723099F048F4772396
:1011C00071F07130F9F48CED809300018FEF0FC056
:1011D0008981843041F08830A9F484EB05C08CED1E
:1011E00003C088EC01C08EEB8093000185EF8093F3
:1011F000010110925803109257030E94D2040FEF7E
:101200001FEF3AC20E94D20480E592E00E941105CD
:1012100061E080E00E94DD0480E692E00E9411051A
:10122000FFCF8FE00E94EA062091480330914903E6
:101230002817390720F4909349038093480320919D
:101240004A0330914B038217930720F490934B038A
:1012500080934A038EE00E94EA0620913E0330917B
:101260003F032817390720F490933F0380933E03F0
:1012700020914003309141038217930720F490930B
:1012800041038093400381E10E94EA0620913403E8
:10129000309135032817390720F490933503809354
:1012A000340320913603309137038217930720F4DB
:1012B00090933703809336032FEFE21AF20AF092ED
:1012C0003303E0923203E0903203F090330399EE5F
:1012D000E91693E0F90608F4A4CF609148037091F1
:1012E000490380914A0390914B03681B790B7093DB
:1012F0004D0360934C0380E090E00E941F0D21E7B6
:1013000039E346EE5EE30E94D60D25E83BEE41EB65
:101310005FE30E94770C60934E0370934F038093BA
:1013200050039093510360913E0370913F0380916D
:10133000400390914103681B790B709343036093C2
:10134000420380E090E00E941F0D21E739E346EE62
:101350005EE30E94D60D25E83BEE41EB5FE30E9481
:10136000770C6093440370934503809346039093F6
:101370004703609134037091350380913603909157
:101380003703681B790B80E090E00E941F0D25E871
:101390003BEE41EB5FE30E94770C0E94F00C7093F0
:1013A000390360933803660F771F80E090E00E9456
:1013B0001F0D4B015C0158E1E52EF12CD12CEF2DD6
:1013C000F0E0EE0FFF1FEA59FE4F6081718180E06F
:1013D00090E00E941F0D9B01AC01C501B4010E9469
:1013E000D10D18160CF4FD2CEE2DF0E0EE0FFF1FC2
:1013F000EA59FE4F6081718180E090E00E941F0DEC
:101400009B01AC01C501B4010E94720C87FF03C0AF
:1014100098E1E92EED18D39448E1D412D0CFF11021
:10142000FA94E3942E2D30E08F2D90E0FC01EE0F26
:10143000FF1FEE0FFF1FEE5FFE4F40815181628163
:10144000738149835A836B837C83F901EE0FFF1FFD
:10145000EA59FE4F20803180880F991FFC01EA591C
:10146000FE4FC080D180220F331F220F331FF9019E
:10147000EE5FFE4F9A01AB016081718182819381A1
:101480000E94050C2B013C01B1016C197D0980E023
:1014900090E00E941F0D9B01AC01C301B2010E94AC
:1014A000770C2B013C01E12CF12CC701B6010E9405
:1014B0001F0D9B01AC01C501B4010E94050C9B01ED
:1014C000AC01C301B2010E94D60D29813A814B8142
:1014D0005C810E94060C4B015C0160E080E00E9490
:1014E000DD044AE0C701B6010E94130560E085E013
:1014F0000E94DD04B10180E090E04AE00E94130503
:1015000080923A0390923B03A0923C03B0923D0339
:1015100020914E0330914F0340915003509151035D
:10152000C501B4010E94D60D20E030EE4AE355E437
:101530000E94770C20E030E048EC52E40E94D60D87
:101540000E94F00C7B0170935503609354038091CB
:101550005703909158036091010170E0049709F0DE
:1015600090C065507109072E000C880B990B0E94E2
:10157000210D9B01AC016091440370914503809162
:101580004603909147030E94720C87FF93C082E04C
:1015900090E09093580380935703C12CD12C8091F5
:1015A0005703909158036091000170E0039709F090
:1015B00085C06B5F7F4F072E000C880B990B0E9434
:1015C000210D9B01AC016091440370914503809112
:1015D0004603909147030E94D10D18160CF08FC05E
:1015E00062E070E070935803609357037BE5E71661
:1015F000F10408F081C082E090E09093580380935A
:10160000570380915703909158038230910509F454
:10161000ABC008F0A2C0009709F096C060E089E076
:101620000E947F0661E070E0709358036093570357
:101630000E94F501109249031092480310934B0346
:1016400000934A0310923F0310923E03109341030C
:101650000093400310923503109234031093370324
:1016600000933603109255031092540340E050E06B
:10167000452B11F00E9400001092330310923203A8
:1016800022CE80E090E00E94210D9B01AC01609190
:1016900044037091450380914603909147030E9453
:1016A000D10D18160CF079CF64E070E070935803F8
:1016B00060935703CC24C394D12C71CF80E090E089
:1016C0000E94210D9B01AC01609144037091450380
:1016D00080914603909147030E94720C87FF07C0D8
:1016E00043E050E0509358034093570308C09BE5F4
:1016F000E916F10428F10BC0C12CD12C08C05BE520
:10170000E516F10408F47DCF92E0C92ED12C80912A
:10171000560391E0980F90935603843058F045E0BB
:1017200050E050935803409357031092560384E0BF
:10173000C82ED12C80915703909158030597D9F06A
:10174000CD2809F458CF5DCF0197D1F582E090E024
:1017500090935803809357036BCF8430910581F1A8
:1017600078F1059769F507C061E089E00E947F067E
:1017700060E08AE027C0809156038F5F8093560314
:1017800090E6E916F10438F060E089E00E947F06F7
:101790000E94F501FFCF8091530391E0980F909341
:1017A0005303823008F444CF6091520321E0622752
:1017B000609352038AE00E947F061092530338CF51
:1017C00060E089E00E947F0633CFE9E5F3E0138211
:1017D000128288EE93E0A0E0B0E084839583A68334
:1017E000B78384EA91E091838083E5E6F3E0138296
:1017F000128286EB91E0918380838FE3848380E182
:10180000818782E08287138608955058BB27AA27D4
:101810000E941D0C0C94970D0E94890D38F00E94B7
:10182000900D20F039F49F3F19F426F40C94860DA6
:101830000EF4E095E7FB0C94800DE92F0E94A80DB3
:1018400058F3BA17620773078407950720F079F4F5
:10185000A6F50C94CA0D0EF4E0950B2EBA2FA02D10
:101860000B01B90190010C01CA01A0011124FF274D
:10187000591B99F0593F50F4503E68F11A16F04048
:10188000A22F232F342F4427585FF3CF4695379547
:101890002795A795F0405395C9F77EF41F16BA0B0C
:1018A000620B730B840BBAF09150A1F0FF0FBB1FBA
:1018B000661F771F881FC2F70EC0BA0F621F731F03
:1018C000841F48F4879577956795B795F7959E3F60
:1018D00008F0B0CF9395880F08F09927EE0F9795F1
:1018E000879508950E945C0D08F481E008950E9498
:1018F0008B0C0C94970D0E94900D58F00E94890D4E
:1019000040F029F45F3F29F00C94800D51110C94A4
:10191000CB0D0C94860D0E94A80D68F39923B1F3AA
:10192000552391F3951B550BBB27AA276217730705
:10193000840738F09F5F5F4F220F331F441FAA1F99
:10194000A9F335D00E2E3AF0E0E832D09150504055
:10195000E695001CCAF72BD0FE2F29D0660F771F03
:10196000881FBB1F261737074807AB07B0E809F0E9
:10197000BB0B802DBF01FF2793585F4F3AF09E3F6E
:10198000510578F00C94800D0C94CB0D5F3FE4F37F
:10199000983ED4F3869577956795B795F7959F5FB1
:1019A000C9F7880F911D9695879597F90895E1E0FD
:1019B000660F771F881FBB1F621773078407BA075C
:1019C00020F0621B730B840BBA0BEE1F88F7E095B7
:1019D00008950E94F00C6894B1110C94CB0D0895F9
:1019E0000E94B00D88F09F5798F0B92F9927B751F2
:1019F000B0F0E1F0660F771F881F991F1AF0BA95B3
:101A0000C9F714C0B13091F00E94CA0DB1E0089539
:101A10000C94CA0D672F782F8827B85F39F0B93F2B
:101A2000CCF3869577956795B395D9F73EF4909565
:101A30008095709561957F4F8F4F9F4F0895E894E3
:101A400009C097FB3EF490958095709561957F4F06
:101A50008F4F9F4F9923A9F0F92F96E9BB279395B4
:101A6000F695879577956795B795F111F8CFFAF4C4
:101A7000BB0F11F460FF1BC06F5F7F4F8F4F9F4FF5
:101A800016C0882311F096E911C0772321F09EE853
:101A9000872F762F05C0662371F096E8862F70E0B9
:101AA00060E02AF09A95660F771F881FDAF7880F93
:101AB0009695879597F90895990F0008550FAA0BE9
:101AC000E0E8FEEF16161706E807F907C0F0121651
:101AD0001306E407F50798F0621B730B840B950B54
:101AE00039F40A2661F0232B242B252B21F40895A9
:101AF0000A2609F4A140A6958FEF811D811D089546
:101B000097F99F6780E870E060E008959FEF80ECB0
:101B1000089500240A941616170618060906089553
:101B200000240A9412161306140605060895092EB9
:101B30000394000C11F4882352F0BB0F40F4BF2B28
:101B400011F460FF04C06F5F7F4F8F4F9F4F089568
:101B500057FD9058440F551F59F05F3F71F047955E
:101B6000880F97FB991F61F09F3F79F08795089543
:101B7000121613061406551FF2CF4695F1DF08C062
:101B8000161617061806991FF1CF8695710561057F
:101B900008940895E894BB2766277727CB0197F927
:101BA00008950E945C0D08F48FEF08950E94E90DDE
:101BB0000C94970D0E94890D38F00E94900D20F032
:101BC000952311F00C94800D0C94860D11240C9427
:101BD000CB0D0E94A80D70F3959FC1F3950F50E0B7
:101BE000551F629FF001729FBB27F00DB11D639FCF
:101BF000AA27F00DB11DAA1F649F6627B00DA11D75
:101C0000661F829F2227B00DA11D621F739FB00D1A
:101C1000A11D621F839FA00D611D221F749F33278A
:101C2000A00D611D231F849F600D211D822F762F23
:101C30006A2F11249F5750409AF0F1F088234AF000
:101C4000EE0FFF1FBB1F661F771F881F915050406C
:101C5000A9F79E3F510580F00C94800D0C94CB0D9C
:101C60005F3FE4F3983ED4F3869577956795B795F3
:101C7000F795E7959F5FC1F7FE2B880F911D96950D
:101C8000879597F908950E945C0D880B990B08952C
:101C9000A1E21A2EAA1BBB1BFD010DC0AA1FBB1F70
:101CA000EE1FFF1FA217B307E407F50720F0A21BE2
:101CB000B30BE40BF50B661F771F881F991F1A944F
:101CC00069F760957095809590959B01AC01BD0179
:101CD000CF010895EE0FFF1F0590F491E02D0994B8
:0E1CE00081E090E0F8940C94750EF894FFCF1C
:101CEE00C8FACDCC4C3E0000803F00000040000002
:101CFE004040000080400000A0400000C0400000B6
:101D0E00E0400000004100001041000020410000B2
:101D1E003041000040410000504100006041000091
:101D2E007041000080410000884100009041000099
:101D3E0098410000A0410000A8410000B041000001
:101D4E00B8410000C04109002B0055008000AB00D7
:101D5E00D50000012B0155018001AB01D501000218
:101D6E002B0255028002AB02D50200032B03550352
:101D7E008003AB03D50300040000400014005400A0
:101D8E000000000043011601F001EA000E01FA0006
:101D9E00EB00000000006C048E00F001EF014950D2
:101DAE00563A2020202000204F50563A2020200066
:101DBE004F50433A20202000204C4F443A20202000
:101DCE000025004950563A00204F50563A004869B7
:101DDE006768566F6C7420446574656374004C4F6D
:101DEE005720566F6C7420446574656374004F56AB
:101DFE004552204C4F414420446574656374002D58
:101E0E002D2D2057454C434F4D45202D2D2D002A6D
:101E1E002A2A2A2041694D6163202A2A2A2A200073
:101E2E00496E697469616C697A696E672E2E2E002F
:101E3E00202057524F4E4720494E505554202000D7
:101E4E00564F4C544147452053454C454354006E24
:0C1E5E00616E00696E66006F7666000021
:00000001FF
